:0400000080312528FE
:100008007E14803100308600003087000B1C0D28DC
:100018000E2812288431A52480310B100B1F1528B7
:10002800162823282100111F1A281B2823282000FE
:10003800111F1F28202823288431D12480317E10C5
:100048000900803127288431CD248031DD008431B6
:10005800CE248031DE008431CF248031DF0084312A
:10006800D0248031E000FD0141308400003085005B
:1000780014308431B62480317E1020008131022969
:1000880020005303031D49284A288B28752855301A
:100098005206031950285228013053280030CD0049
:1000A80001293A30520603195A285B285D28CD01E8
:1000B80001290230CD0001295208FD000330CD008E
:1000C800012952087D06031D6A286B285B287D08D4
:1000D800A500003084314D2480317D082000DF00E8
:1000E8005B284D08BB00BC013C08003A03197D2879
:1000F80001293B08003A03194B28013A03195528EE
:10010800033A03196028013A031965280129CD012A
:1001180052085F06031991289228EA28CC01CB01DE
:1001280001290130D100D001CF01CE018C1C9D28BE
:100138009E28A2280C19A128A228A728DD01DE01E3
:1001480022008E16B92883319123803120002A0895
:10015800B2002908B10082315022803120003208D3
:10016800DE003108DD0022008E122000CC01CB0118
:100178000129CB010130CC0704304C02031CC528EF
:10018800C6280129CC0101000129CC010130CB0787
:1001980004304B02031CD128D2280129CB0183311A
:1001A8000D2380310129CC01CB0122000E1602302B
:1001B8002000BC003830BB00AD30890BE128BB0BF8
:1001C800E128BC0BE12822000E1201295308003A4D
:1001D80003199528023A0319BD28013A0319C928B9
:1001E800073A03199528013A0319D728033A03193E
:1001F800D728013A0319D7289228080084316124A6
:10020800813121008E120E130E128E138C112200D2
:100218008C1123008C100C118D140D1521008D14D8
:100228000D1524008D100D112000C00122000E169E
:1002380001302000C00703304002031C242925296F
:100248001A2998013F3098053030980418159601FE
:1002580097012100111020001814003084319C24CB
:1002680081312000DF005F0A03193B293C2941291D
:100278005F08031D4029412943290130DF00170881
:10028800C6001608C50011100C30E000B630A500F5
:100298000130A6008431BC2481310B178B17200054
:1002A800BE01BF012000540803195B295C29642999
:1002B800D4018031442081312000BE01BF0176295C
:1002C8000130BE070030BF3D0B303F02B830031984
:1002D8003E02031C702971297629BE01BF018431B1
:1002E800C82481312000510803197B297C29A929B8
:1002F8004E08031980298129A929CE0127009401D4
:10030800950120004F0884311B2481312700960174
:10031800013094000130950001302000CF070330F0
:100328004F02031C98299929A929D101D001CF018D
:1003380022000E1668302000BD00E430890BA22987
:10034800BD0BA229000022000E1220005108031D37
:10035800AE29AF2956298530890BB02900005629C6
:10036800803125288331FC23813171082000A200C7
:100378007008A100111045082102A3004608223B7D
:10038800A4002208C6002108C50007302402D03086
:1003980003192302031CD129D229DF29E0010030E7
:1003A800C4000030C3000030C2000030C100D101D9
:1003B800D001CF014F2A51080319E329E4290A2A59
:1003C8005008031DE829E929F52900302402C8301E
:1003D80003192302031CF129F2294F2A0130D00006
:1003E8004F2A00302402323003192302031CFD294E
:1003F800FE294F2A0030240265300319230203180E
:10040800062A072A4F2A0130CE004F2A0C306002F4
:1004180003180F2A102A4F2A00302402E13003194A
:1004280023020318182A1A2A01301B2A0030A000B8
:100438002008F900FA01FB01FC01600A272AF935B6
:10044800FA0DFB0DFC0D890B232A7908C1047A08E3
:10045800C2047B08C3047C08C4040130E0070C30E4
:100468006006031D382A392A4F2A41080F39D3005C
:100478004108F9004208FA004308FB004408FC0060
:100488000430FC36FB0CFA0CF90C890B452A790868
:10049800D2000130D40008002000B701B8010030B4
:1004A800B3000230B4000030B5000030B6003108A7
:1004B800A5003208A600A701A8010030AC00003052
:1004C800AB001330AA008830A9008231A7228231FC
:1004D80020002508B3072608B43D2708B53D28089D
:1004E800B63D0A30B636B50CB40CB30C890B762A77
:1004F8003408BA003308B90001303A022C30031925
:100508003902031C882A892AA22A03303A02E930D0
:10051800031939020318912A922AA22A3A08B40028
:100528003908B300B335B40D2830B5000A30B60029
:1005380033083502B7003408363BB8003808B20033
:100548003708B100080000302000B0000030AF00CC
:100558000030AE000030AD00251CB32AB42ABC2AF6
:100568002908AD072A08AE3D2B08AF3D2C08B03D41
:100578000130A935AA0DAB0DAC0D890BBD2A013090
:10058800A836A70CA60CA50C890BC42A2808270492
:1005980026042504031DD12AD22AB02A3008A8002F
:1005A8002F08A7002E08A6002D08A5000800200087
:1005B8002E082F040319E12AE22A0C2B2F08B10078
:1005C8002E08B000B136B00C3008B2003108B300C4
:1005D80022008C158331DD23823120002608B500E6
:1005E8002508B4008331DD23823120003408250238
:1005F800B0003508263BB10033083102031D062B35
:1006080032083002031C092B0A2BF62A22008C110F
:10061800080020000D0E890C0139A5000D0CA6005C
:10062800A60C260C0139A7000130A735890B192B18
:1006380027082504A800302B22008E178E163E2B83
:1006480022008E178E163E2B22008E178E163E2BFA
:1006580022008E178E163E2B2808003A0319202BED
:10066800013A0319242B033A0319282B013A0319D9
:100678002C2B3E2B080022008C018D018E010830A6
:100688009000F73021008C007F308D000F308E00F5
:1006980008309000313023008C0016308D00163061
:1006A80024008D00083090002100951301302700A8
:1006B8009400013095009601D4302000A500043044
:1006C800A6008431BC2483318B1508002000A600C5
:1006D800A7010130A500270A722BA535890B712BBC
:1006E800250826050319792B7A2B832B22008C15D4
:1006F800F0300032890B7D2B22008C11872BF030D3
:100708000032890B842B01302000A7070430270210
:10071800031C8F2B902B6D2B080000308331B723DF
:10072800833120002608AC002508AB000A3083314D
:10073800B723833120002608AE002508AD002E0817
:100748002C02031DA92B2D082B02031CAC2BAD2B4F
:10075800B22B2C08AA002B08A900B62B2E08AA0039
:100768002D08A90008002000A800A03021009E0044
:1007780001309D0020002808A700A70DA70D210023
:100788001D08200027068339270621009D000D300B
:10079800890BCC2B000021009D149D18D42BD52B40
:1007A800D12B1C082000A60021001B082000A50052
:1007B800080020001708AD001608AC0017082D0621
:1007C8000319E72BE82BEC2B1708AD001608AC0033
:1007D8002C08A700A8012D08A900AA012908AA0029
:1007E800A90127082904A50028082A04A60008004A
:1007F80020001708F8001608F700170878060319EC
:10080800062C072C0B2C1708F8001608F700770899
:10081800F200F3017808F400F5017408F500F4011A
:1008280072087404F00073087504F10008002000D1
:10083800B6002B2C5E08AF005D08AE008231DB22CB
:100848008431362C063083316A238431362C3608BD
:10085800003A03191E2C013A0319262C033A0319EE
:100868001E2C362C08002000181097019601170836
:10087800C8001608C70099010030D7000030D8001A
:100888000030D5000030D6001110911305309800C3
:1008980008002000A6002608230091002000250853
:1008A80023009300151315158B1355309600AA30A5
:1008B800960095148B17151108008431AE248431E5
:1008C80083313F2384318431712484318431372446
:1008D8008431843190248431080021001D100130B6
:1008E8009D009E019C019B012000C901CA011113B2
:1008F8002100111301309D000800200059085A04F6
:100908000319872C882C8D2C5A088A0059080A004C
:1009180084312700161008008B10210015170030AD
:100928002000A5000030A6008431C22484310800CC
:100938002000A5002508230091001513151413089D
:1009480008002700161CA92CAA2CAD2C8431812460
:100958008431080078302100990022009601210096
:1009680098010800640080010131890BB72C00341C
:1009780020002608DA002508D900080020002608EB
:10098800DC002508DB0008002000CD01CC01CB01EC
:1009980008005834023401340C34200011130800C4
:0209A800080045
:020000040001F9
:04000E00E43FFF3E8E
:00000001FF
