:0400000080312528FE
:100008007E14803100308600003087000B1C0D28DC
:100018000E2812288331992380310B100B1F1528C5
:10002800162823282100111F1A281B2823282000FE
:10003800111F1F28202823288331C42380317E10D4
:100048000900803127288331C7238031FD0083319F
:10005800C1238031C5008331C2238031C60083317A
:10006800C3238031C700FC012030840000308500A4
:1000780014308331AA2380317E1020008031442837
:1000880083315523803121008E120E130E128E13E8
:100098008C1122008C112000BC0122008E16043025
:1000A8002000B9000C30B8003330890B5928B80B40
:1000B8005928B90B5928003222008E12043020002A
:1000C800B9000C30B8003330890B6828B80B6828A1
:1000D800B90B6828003201302000BC0703303C020D
:1000E800031C77287828512898013F30980530302C
:1000F8009804181596019701210011102000181472
:1001080000308331902380312000C700470A03194B
:100118008E288F2894284708031D9328942896280A
:100128000130C7001708A7001608A60011100C30E8
:10013800FD00BF30B4000130B5008331B0238031F9
:100148000B178B1722008E1603302000B9000830D9
:10015800B8007730890BAE28B80BAE28B90BAE289B
:1001680022008E122000BA01BB01200033080319B7
:10017800BE28BF28C728B30181310B218031200058
:10018800BA01BB01D9280130BA070030BB3D0B309A
:100198003B02B83003193A02031CD328D428D928C3
:1001A800BA01BB018331BC23803120003108031917
:1001B800DE28DF28FF282E080319E328E428FF2873
:1001C800AE0127009401950120002F088231F62204
:1001D80080312700960101309400013095000130EC
:1001E8002000AF0703302F02031CFB28FC28FF2840
:1001F800B101B001AF013108031D03290429B92851
:100208008530890B05290000B92880312528200070
:100218003203031D1029112952293C2955307C0627
:1002280003191729192901301A290030AD00BE29F0
:100238003A307C060319212922292429AD01BE2937
:100248000230AD00BE297C08AC000330AD00BE29E9
:100258007C082C06031D3129322922292C08B400D8
:10026800003083314123813120002C08C700222926
:100278002D08B600B7013708003A03194429BE29EA
:100288003608003A03191229013A03191C29033ABE
:1002980003192729013A03192C29BE29AD017C0825
:1002A8004706031958295929A729AB01AA01BE29CC
:1002B8000130B100B001AF01AE01833112238131A9
:1002C800003020003502143003193402031C6D2954
:1002D8006E2973292030C5000330C60077290830FD
:1002E800C5000730C600AB01AA01BE29AA0101302A
:1002F800AB0704302B02031C82298329BE29AB01DA
:100308000100BE29AB010130AA0704302A02031CF0
:100318008E298F29BE29AA0122008E170E17BE2901
:10032800AB01AA0122008E1602302000B700383037
:10033800B600AD30890B9E29B60B9E29B70B9E29B6
:1003480022008E12BE293208003A03195C29023AAB
:1003580003197A29013A03198629073A03195C29EE
:10036800013A03199429033A03199429013A031904
:1003780094295929080020001708F9001608F600E2
:10038800170879060319C929CA29CE291708F900B7
:100398001608F6007608F000F1017908F200F3017A
:1003A8007208F300F20170087204F7007108730410
:1003B800F800111026087702FA002708783BFB009E
:1003C8007808A7007708A60007307B02D030031909
:1003D8007A02031CF029F129FE29FD010030A3004F
:1003E8000030A2000030A1000030A000B101B0012F
:1003F800AF016E2A31080319022A032A292A300874
:10040800031D072A082A142A00307B02C830031962
:100418007A02031C102A112A6E2A0130B0006E2AB3
:1004280000307B02323003197A02031C1C2A1D2A71
:100438006E2A00307B02653003197A020318252AD8
:10044800262A6E2A0130AE006E2A0C307D0203186F
:100458002E2A2F2A6E2A00307B02E13003197A02F5
:100468000318372A392A01303A2A0030F50075086E
:10047800F000F101F201F3017D0A462AF035F10D91
:10048800F20DF30D890B422A7008A0047108A1042B
:100498007208A2047308A3040130FD070C307D061E
:1004A800031D572A582A6E2A20080F39B20020083F
:1004B800F0002108F1002208F2002308F3000430BC
:1004C800F336F20CF10CF00C890B642A7008FC006E
:1004D8000130B300080022008C15203020003406BB
:1004E800033003193506031D7A2A7B2A852A05302D
:1004F8002000B6002630890B7F2AB60B7F2A000021
:10050800A12A08303406073003193506031D8D2A41
:100518008E2A982A0A302000B6005830890B922A71
:10052800B60B922A0000A12A06302000B60030300F
:10053800890B9C2AB60B9C2A000022008C1108000B
:1005480022008C018D018E0108309000F7302100C7
:100558008C007F308D000F308E00083090003730CF
:1005680023008C0016308D00163024008D000830D2
:100578009000210095130130270094000130950068
:100588009601C8302000B4000330B5008331B02391
:1005980082318B1508002000B500B6010130B40087
:1005A800360AD72AB435890BD62A340835050319F3
:1005B800DE2ADF2AE82A22008C15F0300032890B67
:1005C800E22A22008C11EC2AF0300032890BE92A49
:1005D80001302000B60704303602031CF42AF52A3D
:1005E800D22A08002000B700062B4608B5004508A7
:1005F800B40082316F228231112B04308231CF2234
:100608008231112B3708003A0319F92A013A0319E4
:10061800012B033A0319F92A112B08008030210015
:100628009E0001309D0083309D050D30890B1A2BEB
:10063800000021009D149D18222B232B1F2B1C0822
:100648002000B50021001B082000B400080020008D
:100658001810970196011708A9001608A800990113
:100668000030BF000030C0000030BD000030BE00C8
:10067800111091130530980008002000B5003508C6
:10068800230091002000340823009300151315154A
:100698008B1355309600AA30960095148B171511B8
:1006A80008008331A22383318231A422833183312C
:1006B8006523833183312B23833183318423833131
:1006C800080021001D1001309D009E019C019B0126
:1006D8002000A401A50111132100111301309D0070
:1006E800080020004108420403197B2B7C2B812B36
:1006F80042088A0041080A008331270016100800C2
:100708008B102100151700302000B4000030B50010
:100718008331B623833108002000B4003408230055
:10072800910015131514130808002700161C9D2B9B
:100738009E2BA12B8331752383310800783021004B
:1007480099002200960121009801080064008001A8
:100758000131890BAB2B003420003508C200340866
:10076800C100080020003508C4003408C300080090
:100778002000AD01AB01AA01080020340334013484
:0A0788002000111308000C340800D3
:020000040001F9
:04000E00E43FFF3E8E
:00000001FF
