:0400000080312528FE
:100008007E14803100308600003087000B1C0D28DC
:100018000E28122884312E2480310B100B1F15282E
:10002800162823282100111F1A281B2823282000FE
:10003800111F1F28202823288431512480317E1045
:10004800090080312728843154248031C800843144
:1000580055248031C900FB01FC01FD0120308400DA
:1000680000308500143084313F2480317E10200018
:100078008231432A7C03031942284328492808303F
:100088007C06031D48284928DA2820002A08031D71
:100098004E284F28582855307B06031D54285528CC
:1000A80058280130AA005B292A03031D5C285D2813
:1000B80066283A307B06031D6228632866280230CA
:1000C800AA005B2902302A06031D6B286C287128B8
:1000D8007B08B0000330AA005B2903302A06031D01
:1000E80076287728D8287B083006031D7C287D28A9
:1000F800D8283008B40000308331D623803120005E
:100108003008C900AA01B801B90122008E160330CF
:100118002000B7000830B6007730890B9128B60B5D
:100128009128B70B912822008E1203302000B700C7
:100138000830B6007730890B9F28B60B9F28B70B7D
:100148009F2801302000B8070030B93D3908803AAF
:10015800B60080303602031DB32802303802031C73
:10016800B628B7288928FD012000B201AD01AC01ED
:10017800AB01B3010130C8001708A7001608A60094
:10018800181411100030A3000030A2000030A100A4
:100198000030A00034302000B600F130890BD2289E
:1001A800B60BD22800325B29AA015B2905307C06F0
:1001B8000319DF28E028EC2806307C060319E52817
:1001C800E628EC2807307C06031DEB28EC282029BC
:1001D8002000BA01BB0122008E1606302000B700AD
:1001E8001330B600AD30890BF728B60BF728B70BDC
:1001F800F728003222008E1206302000B700133094
:10020800B600AD30890B0629B60B0629B70B0629AF
:10021800003201302000BA070030BB3D3B08803A6D
:10022800B60080303602031D1B290A303A02031C2F
:100238001E291F29EF285B297B082000490603197E
:10024800262927294D295B290230FD00AC01AD0183
:1002580022008E16A0300032890B2F2922008E1220
:100268005B290130AF0704302F02031C3C293D29CC
:100278005B29AF0101005B290130AE0704302E0273
:10028800031C472948295B29AE0122008E170E1747
:100298005B297C08003A03192829023A03193529F1
:1002A800013A03194029073A031928295B2908004C
:1002B80020001708FA001608F900480803196529EC
:1002C80066296C29C8017A08A7007908A600422A7D
:1002D80027087A02031D722926087902031C75294A
:1002E80076297D2926087902F40027087A3BF5004B
:1002F800892926087902F00027087A3BF10070085E
:10030800FF3EF400FF30713DF5007508F1007408F8
:10031800F000F136F00CF136F00C7008F7007108B7
:10032800F8007A08A7007908A60022000E172830DE
:10033800890B9C2922000E1302307D06031DA52976
:10034800A629C42900307802643003197702031CF7
:10035800AE29AF29422A00307802A130031977026A
:100368000318B729B829422A01302000AD0022001D
:100378000E174230890BBE29003222000E13422A82
:1003880001307802C230031977020318CC29CE292C
:100398000130CF290030F6007D08031DD429D52966
:1003A800FC297608031DD929DA29F929013020000A
:1003B800AB0704302B06031DE229E329422A01304A
:1003C800FD000030A3000030A2000030A100003082
:1003D800A0000430B300AB0122008E16A03000321A
:1003E800890BF32922008E12422A2000AB01422AEF
:1003F8007D03031D002A012A422A7608F000F10134
:10040800F201F3012000330A0D2AF035F10DF20D47
:10041800F30D890B092A7008A0047108A104720859
:10042800A2047308A3040130B3070C303306031D7C
:100438001E2A1F2A422A0330FD0020080F39FC001B
:100448002008F0002108F1002208F2002308F30038
:100458000430F336F20CF10CF00C890B2D2A7008DD
:10046800FB000130B20022008E160330F0009830F5
:10047800890B3C2AF00B3C2A22008E12080083319B
:10048800EA23823121008E120E138E138C11220062
:100498008C112000BE01BF0122008E1605302000FD
:1004A800BD000F30BC00F130890B582ABC0B582A0C
:1004B800BD0B582A22008E1205302000BD000F30D7
:1004C800BC00F130890B662ABC0B662ABD0B662A74
:1004D80001302000BE070030BF3D3F08803ABC0015
:1004E80080303C02031D7A2A03303E02031C7D2A19
:1004F8007E2A502A200098013F309805CF30980571
:100508009601970121001110200018140030843141
:10051800252482312000C900490A0319942A952A02
:100528009A2A4908031D992A9A2A9C2A0130C90047
:100538005C30B4000130B5008431452482318B171A
:100548000B1722008E1603302000BD000830BC00B7
:100558007730890BAD2ABC0BAD2ABD0BAD2A220022
:100568008E12200032080319BA2ABB2ABF2AB20108
:1005780080313E20823102307D06031DC42AC52AFF
:10058800DB2A20002D080319CA2ACB2ADB2AAD0151
:100598008231E222823101302000AC0703302C0284
:1005A800031CD72AD82ADB2AFD01AC01AB01853010
:1005B800890BDC2A0000B52A803125288331A52340
:1005C800823120003508B8003408B70000303802FE
:1005D800143003193702031CF22AF32AF82A0830C8
:1005E800B9000730BA000A2B2030B9000330BA002E
:1005F8000A2B3A08B5003908B40083311E2382312A
:10060800152B063083317E238231152B2C08003AB6
:100618000319FD2A013A0319052B033A0319FD2A88
:10062800152B22008E168530890B182B000022000E
:100638008E12080022008C1520302000340603306A
:1006480003193506031D292B2A2B342B05302000CE
:10065800B6002630890B2E2BB60B2E2B0000502B04
:1006680008303406073003193506031D3C2B3D2B93
:10067800472B0A302000B6005830890B412BB60BA7
:10068800412B0000502B06302000B6003030890B7B
:100698004B2BB60B4B2B000022008C1108002200BC
:1006A8008C018D018E0108309000F73021008C00FC
:1006B8007F308D000F308E000830900037302300D7
:1006C8008C0016308D00163024008D000830900004
:1006D8002100951301302700940001309500960100
:1006E80056302000B4000430B500843145248331ED
:1006F8008B1508002000B500B6010130B400360A99
:10070800862BB435890B852B3408350503198D2BB9
:100718008E2B972B22008C15F0300032890B912BF1
:1007280022008C119B2BF0300032890B982B013062
:100738002000B60704303602031CA32BA42B812B00
:100748000800803021009E0001309D001D0883397B
:1007580010389D000D30890BAF2B000021009D142F
:100768009D18B72BB82BB42B1C082000B50021000E
:100778001B082000B40008002000181097019601FB
:100788001708A9001608A80099010030C200003017
:10079800C3000030C0000030C100111091130530B3
:1007A800980008002000B5003508230091002000BB
:1007B800340823009300151315158B135530960034
:1007C800AA30960095148B17151108008431372428
:1007D80083318331532383318331FA238331833146
:1007E800C0238331843119248331080021001D106E
:1007F80001309D009E019C019B012000A401A501E0
:1008080011132100111301309D0008002000440835
:1008180045040319102C112C162C45088A0044088D
:100828000A0084312700161008008B1021001517C4
:1008380000302000B4000030B50084314B248431EE
:1008480008002000B4003408230091001513151483
:10085800130808002700161C322C332C362C843140
:100868000A2484310800783021009900220096017A
:10087800210098010800640080010131890B402C97
:10088800003420003508C5003408C40008002000E2
:100898003508C7003408C6000800200011130800F6
:0608A800013401340800D8
:020000040001F9
:04000E00E43FFF3E8E
:00000001FF
