:0400000080312528FE
:100008007E14803100308600003087000B1C0D28DC
:100018000E28122884317A2480310B100B1F1528E2
:10002800162823282100111F1A281B2823282000FE
:10003800111F1F28202823288431A62480317E10F0
:100048000900803127288431A2248031DE008431E0
:10005800A3248031DF008431A4248031E00084317E
:10006800A5248031E100FD01423084000030850084
:10007800143084318B2480317E1020008031442854
:1000880084313624803121008E120E130E128E1305
:100098008C1122008C1123008C100C112000C1013E
:1000A80022008E1604302000BE000C30BD00333014
:1000B800890B5C28BD0B5C28BE0B5C280032220033
:1000C8008E1204302000BE000C30BD003330890B86
:1000D8006B28BD0B6B28BE0B6B280032013020004B
:1000E800C10703304102031C7A287B285428980151
:1000F8003F30980530309804181596019701210073
:10010800111020001814003084317124803120002F
:10011800E000600A03199128922897286008031DB7
:100128009628972899280130E0001708C700160874
:10013800C60011100C30E100CF30A5000130A60038
:100148008431912480310B178B1722008E160330CF
:100158002000BE000830BD007730890BB128BD0BE8
:10016800B128BE0BB12822008E122000BF01C001A9
:10017800200055080319C128C228CA28D501813191
:10018800112180312000BF01C001DC280130BF07E8
:100198000030C03D0B304002B83003193F02031C49
:1001A800D628D728DC28BF01C00184319D2480319E
:1001B800200052080319E128E22802294F080319F0
:1001C800E628E7280229CF0127009401950120009D
:1001D80050088331D72380312700960101309400DD
:1001E8000130950001302000D00703305002031C75
:1001F800FE28FF280229D201D101D0015208031D8F
:1002080006290729BC288331782380318530890B5A
:100218000B290000BC288031252820005403031D29
:1002280016291729582942295530530603191D291B
:100238001F29013020290030CE00CE293A3053063C
:100248000319272928292A29CE01CE290230CE00D0
:10025800CE295308FD000330CE00CE2953087D0671
:10026800031D3729382928297D08A5000030843145
:10027800222481317D082000E00028294E08BB0097
:10028800BC013C08003A03194A29CE293B08003A28
:1002980003191829013A03192229033A03192D29A8
:1002A800013A03193229CE29CE01530860060319F1
:1002B8005E295F29B729CD01CC01CE290130D200B2
:1002C800D101D001CF018C1C6A296B296F290C1927
:1002D8006E296F297429DE01DF0122000E16862996
:1002E8008331F323813120002608B2002508B100AC
:1002F80082316922813120003208DF003108DE00B6
:1003080022000E122000CD01CC01CE29CC010130F3
:10031800CD0704304D02031C92299329CE29CD0123
:100328000100CE29CD010130CC0704304C02031C5A
:100338009E299F29CE29CC0122008E170E17CE297F
:10034800CD01CC0122008E1602302000BC003830CE
:10035800BB00AD30890BAE29BB0BAE29BC0BAE2957
:1003680022008E12CE295408003A03196229023A53
:1003780003198A29013A03199629073A03196229A8
:10038800013A0319A429033A0319A429013A0319C4
:10039800A4295F2908008331B8238131710820001E
:1003A800A2007008A100111046082102A300470806
:1003B800223BA4002208C7002108C60007302402F7
:1003C800D03003192302031CEA29EB29F829E1019B
:1003D8000030C5000030C4000030C3000030C20047
:1003E800D201D101D001682A52080319FC29FD293C
:1003F800232A5108031D012A022A0E2A003024024A
:10040800C83003192302031C0A2A0B2A682A013060
:10041800D100682A00302402323003192302031C59
:10042800162A172A682A0030240265300319230285
:1004380003181F2A202A682A0130CF00682A0C30A6
:1004480061020318282A292A682A00302402E13088
:10045800031923020318312A332A0130342A0030C1
:10046800A0002008F900FA01FB01FC01610A402AFA
:10047800F935FA0DFB0DFC0D890B3C2A7908C204ED
:100488007A08C3047B08C4047C08C5040130E1076A
:100498000C306106031D512A522A682A42080F3976
:1004A800D4004208F9004308FA004408FB00450854
:1004B800FC000430FC36FB0CFA0CF90C890B5E2AA4
:1004C8007908D3000130D50008002000B701B80131
:1004D8000030B3000230B4000030B5000030B60080
:1004E8003108A5003208A600A701A8010030AC0019
:1004F8000030AB001330AA008830A9008231C02236
:10050800823120002508B3072608B43D2708B53DE9
:100518002808B63D0A30B636B50CB40CB30C890BB6
:100528008F2A3408BA003308B90001303A022C3057
:1005380003193902031CA12AA22ABB2A03303A0252
:10054800E930031939020318AA2AAB2ABB2A3A0848
:10055800B4003908B300B335B40D2830B5000A30FB
:10056800B60033083502B7003408363BB8003808FF
:10057800B2003708B100080000302000B000003099
:10058800AF000030AE000030AD00251CCC2ACD2ACB
:10059800D52A2908AD072A08AE3D2B08AF3D2C08FF
:1005A800B03D0130A935AA0DAB0DAC0D890BD62A8B
:1005B8000130A836A70CA60CA50C890BDD2A280843
:1005C800270426042504031DEA2AEB2AC92A300831
:1005D800A8002F08A7002E08A6002D08A5000800CF
:1005E80020002E082F040319FA2AFB2A252B2F088E
:1005F800B1002E08B000B136B00C3008B200310896
:10060800B30022008C1583319923823120002608FB
:10061800B5002508B40083319923823120003408BD
:100628002502B0003508263BB10033083102031D0E
:100638001F2B32083002031C222B232B0F2B2200E6
:100648008C11080022008C018D018E010830900069
:10065800F73021008C007F308D000F308E0008307D
:100668009000313023008C0016308D0016302400A5
:100678008D00083090002100951301302700940068
:10068800013095009601A9302000A5000430A6008D
:100698008431912483318B1508002000A600A7011E
:1006A8000130A500270A592BA535890B582B250899
:1006B80026050319602B612B6A2B22008C15F0305C
:1006C8000032890B642B22008C116E2BF030003223
:1006D800890B6B2B01302000A70704302702031C6D
:1006E800762B772B542B080020000D0E890C01392E
:1006F800A5000D0CA600A60C260C0139A700013098
:10070800A735890B842B27082504A8002808003A58
:100718000319982B013A0319982B033A0319982BBC
:10072800013A0319982B982B080020001708AD00F0
:100738001608AC0017082D060319A32BA42BA82B09
:100748001708AD001608AC002C08A700A8012D0852
:10075800A900AA012908AA00A90127082904A500B7
:1007680028082A04A600080020001708F800160820
:10077800F700170878060319C22BC32BC72B1708D5
:10078800F8001608F7007708F200F3017808F4007B
:10079800F5017408F500F40172087404F000730898
:1007A8007504F10008002000B600E72B5F08AF00D1
:1007B8005E08AE008231F4228331F22B043083319B
:1007C80051238331F22B3608003A0319DA2B013A08
:1007D8000319E22B033A0319DA2BF22B0800A03095
:1007E80021009E0001309D0083309D050D30890B4E
:1007F800FB2B000021009D149D18032C042C002CB9
:100808001C082000A60021001B082000A5000800E5
:1008180020001810970196011708C9001608C8008B
:1008280099010030D8000030D9000030D6000030DF
:10083800D700111091130530980008002000A60079
:100848002608230091002000250823009300151393
:1008580015158B1355309600AA30960095148B17F2
:10086800151108008431832484318331262384318F
:1008780084314624843184310C24843184316524C4
:100888008431080021001D1001309D009E019C014B
:100898009B012000CA01CB01111321001113013063
:1008A8009D00080020005A085B0403195C2C5D2C8D
:1008B800622C5B088A005A080A0084312700161047
:1008C80008008B102100151700302000A50000300B
:1008D800A60084319724843108002000A50025084B
:1008E8002300910015131514130808002700161C7F
:1008F8007E2C7F2C822C8431562484310800783059
:100908002100990022009601210098010800640046
:1009180080010131890B8C2C003420002608DB0073
:100928002508DA00080020002608DD002508DC007C
:1009380008002000CE01CD01CC0108005834023453
:0C09480001340C342000111308000800DA
:020000040001F9
:04000E00E43FFF3E8E
:00000001FF
